:020000021000EC
:10F000000C9494F80C94B3F80C94B3F80C94B3F8F3
:10F010000C94B3F80C94B3F80C94B3F80C94B3F8C4
:10F020000C94B3F80C94B3F80C94B3F80C94B3F8B4
:10F030000C94B3F80C94B3F80C94B3F80C94B3F8A4
:10F040000C94B3F80C94B3F80C94B3F80C94B3F894
:10F050000C94B3F80C94B3F80C94B3F80C94B3F884
:10F060000C94B3F80C94B3F80C94B3F80C94B3F874
:10F070000C94B3F80C94B3F80C94B3F80C94B3F864
:10F080000C94B3F80C94B3F80C94B3F80C94B3F854
:10F090000C94B3F80C94B3F80C94B3F80C94B3F844
:10F0A0000C94B3F80C94B3F80C94B3F80C94B3F834
:10F0B0000C94B3F80C94B3F80C94B3F80C94B3F824
:10F0C0000C94B3F80C94B3F80C94B3F80C94B3F814
:10F0D0000C94B3F80C94B3F80C94B3F80C94B3F804
:10F0E0000C94B3F80C94B3F80C94B3F80C94B3F8F4
:10F0F0000C94B3F80C94B3F80C94B3F80C94B3F8E4
:10F100000C94B3F80C94B3F80C94B3F80C94B3F8D3
:10F110000C94B3F80C94B3F80C94B3F80C94B3F8C3
:10F1200000212EFFFF00355B11241FBECFEFD1E47D
:10F13000DEBFCDBF12E0A0E0B2E0EAE8F8EF01E008
:10F140000BBF02C007900D92A230B107D9F713E0B0
:10F15000A2E0B2E001C01D92AD30B107E1F70E941C
:10F16000DCF90C9443FC0C9400F8982F8091020277
:10F17000813019F0823041F008958091C00085FF00
:10F18000FCCF9093C60008958091C80085FFFCCF06
:10F190009093CE0008951F93982F959595959595EA
:10F1A0009595905D8F708A3054F4182F105D892FDB
:10F1B0000E94B5F8812F0E94B5F81F910895182F6D
:10F1C000195A892F0E94B5F8812F0E94B5F81F9116
:10F1D0000895EF92FF920F931F9380910202813066
:10F1E00069F1823031F080E01F910F91FF90EF9034
:10F1F0000895EE24FF2487018091C80087FD17C081
:10F200000894E11CF11C011D111D81E4E81682E443
:10F21000F8068FE0080780E0180770F3E091040219
:10F22000F091050209958091C80087FFE9CF809190
:10F23000CE001F910F91FF90EF900895EE24FF24D0
:10F2400087018091C00087FD17C00894E11CF11C64
:10F25000011D111D81E4E81682E4F8068FE008071D
:10F2600080E0180770F3E0910402F091050209951F
:10F270008091C00087FFE9CF8091C6001F910F9158
:10F28000FF90EF9008951F930E94E9F8182F0E94B5
:10F29000B5F8113634F410330CF01053812F1F9150
:10F2A00008951755812F1F9108951F930E9443F9C8
:10F2B000182F0E9443F91295107F810F1F91089516
:10F2C000982F20910202992339F0213031F0223019
:10F2D00061F091509923C9F708958091C00087FF8C
:10F2E000FCCF8091C6009150F5CF8091C80087FF78
:10F2F000FCCF8091CE009150EDCF1F93182F0E942C
:10F30000E9F8803281F0809103028F5F80930302DD
:10F31000853011F01F910895E0910402F0910502EB
:10F3200009951F91089584E10E94B5F8812F0E94EC
:10F33000B5F880E10E94B5F81F9108950E94E9F8A0
:10F34000803271F0809103028F5F809303028530D9
:10F3500009F00895E0910402F091050209950895DD
:10F3600084E10E94B5F880E10E94B5F8089540E973
:10F3700051E08823A1F0759A28EE33E0FA01319725
:10F38000F1F721503040D1F7759828EE33E0FA01BB
:10F390003197F1F721503040D1F7815061F708954E
:10F3A00020E231EF280F311D442737FD4095542FBF
:10F3B0004BBFF901879108950F931F93CF93DF936C
:10F3C000000081E08093020280E18093C4001092EB
:10F3D000C5001092C00086E08093C20088E180934F
:10F3E000C1006898709A6D9A86E00E94B7F90E94F1
:10F3F000E9F88033B1F18133B9F1803409F454C0B4
:10F40000813409F45AC0823409F469C0853409F49E
:10F410006CC0803531F1823521F1813511F18535AE
:10F4200009F469C0863509F471C0843609F47AC0DC
:10F43000843709F4F5C0853709F455C1863709F4D6
:10F440004AC0809103028F5F80930302853079F672
:10F45000E0910402F091050209950E94E9F88033D9
:10F4600051F60E949EF9C3CF0E94E9F8803249F715
:10F4700084E10E94B5F881E40E94B5F886E50E9417
:10F48000B5F882E50E94B5F880E20E94B5F889E4FB
:10F490000E94B5F883E50E94B5F880E50E94B5F8B2
:10F4A00080E10E94B5F8A3CF0E94E9F88638C8F23F
:10F4B0000E94E9F80E949EF99ACF0E94E9F88038EC
:10F4C00009F4AAC0813809F4A3C0823809F420C124
:10F4D000883909F48CC080E00E947DF988CF84E1EE
:10F4E0000E9460F90E949EF982CF85E00E9460F937
:10F4F0000E949EF97CCF0E94E9F8809306020E9448
:10F50000E9F8809307020E949EF971CF0E94E9F802
:10F51000803309F470C083E00E9460F980E00E94AB
:10F520007DF965CF0E94E9F8809309030E94E9F80C
:10F530008093080380910C038E7F80930C030E94BC
:10F54000E9F8853409F4FCC080910803909109031F
:10F55000892B89F000E010E00E94E9F8F801E85FEB
:10F56000FD4F80830F5F1F4F809108039091090327
:10F570000817190788F30E94E9F8803209F061CF73
:10F5800080910C0380FFEEC02091060230910702AB
:10F59000220F331F30930702209306028091080345
:10F5A00090910903892BE1F000E010E0F801E85F99
:10F5B000FD4FC90160810E9435FC20910602309107
:10F5C00007022F5F3F4F30930702209306020F5F21
:10F5D0001F4F80910803909109030817190730F312
:10F5E00084E10E94B5F880E10E94B5F800CF83E085
:10F5F0000E947DF9FCCE0E94E9F80E94E9F8182FDC
:10F600000E94E9F8112309F420C1113009F494C0D3
:10F6100081E00E947DF9EBCE82E00E947DF9E7CE89
:10F620000E94E9F8809309030E94E9F88093080397
:10F63000209106023091070237FD8EC080910C03A5
:10F640008D7F80930C03220F331F3093070220938A
:10F6500006020E94E9F8853409F478C080910C0311
:10F660008E7F80930C030E94E9F8803209F0BFCEB0
:10F6700084E10E94B5F88091080390910903892BD9
:10F6800009F442C000E010E0209106023091070228
:10F6900017C0F90184910E94B5F8209106023091BB
:10F6A00007022F5F3F4F30930702209306020F5F40
:10F6B0001F4F80910803909109030817190720F53F
:10F6C00080910C0380FD28C081FFE3CFC901A0E039
:10F6D000B0E080509040AF4FBF4FABBFFC0187916F
:10F6E0000E94B5F8DACF0E94E9F8803209F0A9CE7D
:10F6F00084E10E94B5F88EE10E94B5F887EA0E9485
:10F70000B5F881E00E94B5F880E10E94B5F86FCEAF
:10F7100080E10E947DF96BCEC9010E942DFC0E9400
:10F72000B5F820910602309107022F5F3F4F3093CA
:10F73000070220930602BBCF87EA0E947DF957CECD
:10F7400080910C03816080930C03FECE80910C03AA
:10F75000816080930C0387CF80910C03826080933B
:10F760000C0371CF8091070287FD73C010920B03C9
:10F7700080910B038BBF8091060290910702880F46
:10F78000991F90930702809306028091080380FFDF
:10F7900009C0809108039091090301969093090391
:10F7A00080930803F894F999FECF1127E09106029F
:10F7B000F0910702C8E0D2E080910803909109031C
:10F7C000103091F40091570001700130D9F303E03B
:10F7D00000935700E8950091570001700130D9F36C
:10F7E00001E100935700E8950990199000915700A6
:10F7F00001700130D9F301E000935700E8951395AB
:10F80000103898F011270091570001700130D9F39A
:10F8100005E000935700E895009157000170013012
:10F82000D9F301E100935700E8953296029709F069
:10F83000C7CF103011F00296E5CF112484E10E9469
:10F84000B5F880E10E94B5F8D2CD8EE10E947DF935
:10F85000CECD81E080930B038BCFF999FECF92BD83
:10F8600081BDF89A992780B50895262FF999FECF82
:10F870001FBA92BD81BD20BD0FB6F894FA9AF99ACD
:0AF880000FBE01960895F894FFCF23
:02F88A008000FC
:040000031000F000F9
:00000001FF
